:100000000C943E000C94BB030C945B000C945B00BE
:100010000C945B000C945B000C945B000C945B00F4
:100020000C945B000C945B000C945B000C945B00E4
:100030000C945B000C945B000C945B000C945B00D4
:100040000C945B000C945B000C944C070C947A07A6
:100050000C945B000C945B000C945B000C945B00B4
:100060000C945B000C945B00E901FD011802330263
:100070004E026902A402DF021A03340311241FBED8
:10008000CFEFD8E0DEBFCDBF11E0A0E0B1E0E0EF00
:10009000FAE102C005900D92A038B107D9F722E02D
:1000A000A0E8B1E001C01D92A030B207E1F70E94C4
:1000B00071010C94760D0C94000085B1886085B9AF
:1000C00085E08A95F1F7000085B1877F85B90895AD
:1000D000CF93C82F662321F085B1816085B903C015
:1000E00085B18E7F85B98AB180618AB98AB1806213
:1000F0008AB98AB180648AB98AB180688AB98BB1B9
:100100008F778BB98BB18F7B8BB98BB18F7D8BB98F
:100110008BB18F7E8BB9CC231CF48BB180688BB9EB
:10012000C6FF03C08BB180648BB9C5FF03C08BB120
:1001300080628BB9C4FF03C08BB180618BB90E9410
:100140005D008BB18F778BB98BB18F7B8BB98BB106
:100150008F7D8BB98BB18F7E8BB9C3FF03C08BB101
:1001600080688BB9C2FF03C08BB180648BB9C1FFBB
:1001700003C08BB180628BB9C0FF03C08BB18061BB
:100180008BB90E945D008BB180618BB98BB18062AD
:100190008BB98BB180648BB98BB180688BB987EBDD
:1001A0009BE00197F1F700C00000CF91089560E057
:1001B0000E946800089561E00E946800089561113E
:1001C00004C080580E94D700089580540E94D70030
:1001D000089581E00E94D700089561E00E946800C0
:1001E0000895CF93DF93FC0103C00E94ED00FE0150
:1001F000EF01219680818111F8CFDF91CF91089591
:10020000CF93C82F84B1816084B98AB180628AB9E2
:1002100084B1886084B98AB180618AB98AB1806208
:100220008AB98AB180648AB98AB180688AB98FEF45
:1002300099EF0197F1F700C000008BB180628BB994
:100240008BB180618BB90E945D008FE19EE40197C4
:10025000F1F700C000000E945D008FEF90E0019771
:10026000F1F700C000000E945D008FEF90E0019761
:10027000F1F700C000008BB18F7E8BB90E945D004A
:100280008FEF90E00197F1F700C0000088E20E9434
:10029000D70088E00E94D7000E94E90086E00E9413
:1002A000D7008C2F0E94D700CF910895EAE7F0E0A5
:1002B00080818668808380E480937C0008958770C5
:1002C000806480937C00EAE7F0E080818064808332
:1002D00080917A0086FDFCCF809178009091790022
:1002E0000895CF93DF93CDB7DEB72C970FB6F89470
:1002F000DEBF0FBECDBF0E94FE0687E690E00E94E3
:10030000A4078CE00E94000180E40E94D70010E066
:1003100008C0E12FF0E0E050FF4F80810E94DB0039
:100320001F5F1830B0F380E80E94D7000E94D40607
:100330000E94560184B1826084B984B1846084B91A
:10034000109285001092840083EC99E090938700CE
:100350008093860082EA809380008BE18093810005
:1003600087B1877F87B988B1886088B984B18F7E6B
:1003700084B985B1806185B984B18F7D84B985B137
:10038000806285B981E08DBB8CBB83E0809369007E
:10039000789400E080E001C0812F339B06C01C9B55
:1003A00006C01D9906C013E005C011E003C012E0AD
:1003B00001C010E0181781F3112371F3802F90E032
:1003C0008A30910508F085C1FC01EC5CFF4F0C946C
:1003D0002B0A0E94E90081E191E00E94F100F8946B
:1003E000E090E601F090E7010E941506F701918385
:1003F0008083113009F06DC15BC1123049F48981ED
:10040000893011F4198265C189818F5F898361C147
:10041000133051F48981811103C089E0898359C166
:1004200089818150898355C1113009F052C142C17F
:10043000123049F48A81853011F41A824AC18A81C6
:100440008F5F8A8346C1133051F48A81811103C0C2
:1004500085E08A833EC18A8181508A833AC1113006
:1004600009F037C129C1123049F48B81893011F468
:100470001B822FC18B818F5F8B832BC1133051F473
:100480008B81811103C089E08B8323C18B818150D3
:100490008B831FC1113009F01CC110C1123049F407
:1004A0008C81853011F41C8214C18C818F5F8C8308
:1004B00010C1133051F48C81811103C085E08C830D
:1004C00008C18C8181508C8304C1113009F001C1B5
:1004D000F7C01230C1F48D81893041F48E818230B1
:1004E00028F41D828E818F5F8E83F3C08D818330CF
:1004F00030F08E81823019F41D821E82EAC08D8117
:100500008F5F8D83E6C01330D9F48D81811109C0CE
:100510008E81882331F089E08D838E8181508E8396
:10052000D8C08D81811108C08E81811105C083E002
:100530008D8382E08E83CDC08D8181508D83C9C033
:10054000113009F0C6C0BEC01230C1F48F818930AD
:1005500041F48885833028F41F8288858F5F8887DF
:10056000B8C08F81843030F08885813019F41F82C3
:100570001886AFC08F818F5F8F83ABC01330D9F4E3
:100580008F81811109C08885882331F089E08F83AC
:100590008885815088879DC08F81811108C088859A
:1005A000811105C081E08F8383E0888792C08F81AD
:1005B00081508F838EC0113009F08BC085C01230FE
:1005C000C1F48985893041F48A85811105C0198675
:1005D0008A858F5F8A877DC08985823030F08A85E1
:1005E000813019F419861A8674C089858F5F8987CE
:1005F00070C01330D9F48985811109C08A85882398
:1006000031F089E089878A8581508A8762C089852F
:10061000811108C08A85811105C082E0898781E047
:100620008A8757C089858150898753C0113009F066
:1006300050C04CC0123049F48B85893011F41B86B0
:1006400048C08B858F5F8B8744C0133051F48B85F6
:10065000811103C089E08B873CC08B8581508B87DB
:1006600038C01130B1F534C0123049F48C8589306E
:1006700011F41C862EC08C858F5F8C872AC01330A6
:1006800051F48C85811103C089E08C8722C08C8550
:1006900081508C871EC01130E1F4E091E601F091A9
:1006A000E701808191810E948A06789400E011C060
:1006B00001E00FC002E00DC003E00BC004E009C080
:1006C00005E007C006E005C007E003C008E001C080
:1006D00009E059814A813B812C819D818E811F9245
:1006E0005F931F924F931F923F931F922F931F92DE
:1006F0009F931F928F9388E191E09F938F9388E05F
:1007000091E09F938F930E947C0A5B854C8539858D
:100710002A859F8188851F925F931F924F931F9216
:100720003F931F922F931F929F931F928F9387E265
:1007300091E09F938F938FEC91E09F938F930E9412
:100740007C0A0FB6F894DEBF0FBECDBF60E087E035
:100750000E94DF0088E091E00E94F10061E085E006
:100760000E94DF008FEC91E00E94F100011114CE95
:100770000E94E90011CE1F920F920FB60F92112422
:100780000F931F932F933F934F935F936F937F9399
:100790008F939F93AF93BF93EF93FF93CF93DF9389
:1007A000CDB7DEB7C455D109DEBFCDBF89E0E7E7DD
:1007B000F1E0DE01A45BBF4F01900D928A95E1F755
:1007C00080918001823009F4A8C030F4882369F058
:1007D000813009F47DC082C1843009F41CC108F461
:1007E000EEC0853009F449C179C182E00E945F0101
:1007F000873391400CF461C080E00E945F01845512
:100800009140BC01990F880B990B0E94F1082AE9CD
:1008100039E949E550E40E944E080E94C00880E092
:1008200090E00E94EF0829E23CE54FE150E40E948D
:100830007D0920E030E04BE753E40E94E2070E948C
:10084000C008709389006093880081E00E945F0176
:1008500084559140BC01990F880B990B0E94F108B7
:100860002AE939E949E550E40E944E080E94C0088F
:1008700080E090E00E94EF0829E23CE54FE150E47F
:100880000E947D0920E030E04BE753E40E94E2073C
:100890000E94C00870938B0060938A0060E08FE034
:1008A0000E94DF0080E20E94ED0060E08FE00E9485
:1008B000DF0080E00E94ED0007C060E08FE00E9452
:1008C000DF0080E20E94ED0081E08093800108C19A
:1008D0000E948C05809389010E94A0056093850188
:1008E0007093860180938701909388010E94D305BD
:1008F00060938101709382018093830190938401BE
:100900000091E6011091E7010E941506F80191831C
:10091000808382E080938001E3C0E091E601F09162
:10092000E70100811181A281B381648175814681D3
:10093000578120853185828593851F930F93BF93BF
:10094000AF937F936F935F934F933F932F939F93B7
:100950008F9388E191E09F938F938E01045B1F4FEB
:100960001F930F930E947C0A88E391E00E94D407B2
:10097000C8010E94D40784E591E00E94D40760E09A
:1009800080E00E94DF0081E491E00E94F10060E0DD
:1009900080E00E94DF00C8010E94F10060E085E075
:1009A0000E94DF0087E491E00E94F10083E08093E1
:1009B00080010FB6F894DEBF0FBECDBF91C080910D
:1009C00089014AE0BE016F5F7F4F90E00E94620A9A
:1009D0008BE491E00E94D407CE0101960E94D407D7
:1009E00082E591E00E94D40761E081E00E94DF008F
:1009F00087E491E00E94F10061E081E00E94DF0065
:100A0000CE0101960E94F10085E20E94ED0084E093
:100A10008093800165C0609185017091860180910D
:100A20008701909188012AE0AE01465F5F4F0E94E6
:100A3000400A86E591E00E94D407CE010A960E9402
:100A4000D4078EE591E00E94D40761E087E00E9420
:100A5000DF0082E491E00E94F10061E087E00E9403
:100A6000DF00CE010A960E94F10084E691E00E9428
:100A7000F10085E08093800133C060918101709125
:100A8000820180918301909184012AE0AE01455D4D
:100A90005F4F0E94310A89E691E00E94D407CE019F
:100AA0008B960E94D40781E791E00E94D40760E012
:100AB0008AE00E94DF0086E491E00E94F10060E09D
:100AC0008AE00E94DF00CE018B960E94F10085E74C
:100AD00091E00E94F1001092800102C0109280010A
:100AE000CC5ADF4F0FB6F894DEBF0FBECDBFDF91FB
:100AF000CF91FF91EF91BF91AF919F918F917F9196
:100B00006F915F914F913F912F911F910F910F9096
:100B10000FBE0F901F901895CF9388EB0E940D0782
:100B200080E00E942A070E94480789EB0E940D0777
:100B30000E943E07C82F0E9448078C2FCF9108952E
:100B4000CF92DF92EF92FF928CEE0E940D0780E32E
:100B50000E942A070E9448078DEE0E940D070E94FE
:100B600034070E943407C82ED12CDC2CCC240D2C49
:100B7000000CEE08FF080E943E07A7019601282BF3
:100B8000CA01B90124E630E040E050E00E94EA09E1
:100B900069017A010E944807C701B601FF90EF90F2
:100BA000DF90CF900895CF92DF92EF92FF928CEE7C
:100BB0000E940D0782E30E942A070E9448078DEEDB
:100BC0000E940D070E94340720E1829FC00111247A
:100BD000C82E880FDD08DC2CCC24DD0CDD0CDD0CF0
:100BE000DD0C0E943407682F70E0762F6627C62A36
:100BF000D72A0D2C000CEE08FF080E943E07A70123
:100C00009601282BCA01B90124E630E040E050E00B
:100C10000E940C0A69017A010E944807C701B601C7
:100C2000FF90EF90DF90CF900895CF93DF9380ED0A
:100C30000E940D0780E00E942A0781ED0E940D07A7
:100C40000E943407CAEDD1E0982F9F709883807777
:100C500090E0959587959595879595958795959528
:100C6000879589830E943407982F9F709A83807795
:100C700090E0959587959595879595958795959508
:100C800087958B830E943E07982F9F709C8380736B
:100C900090E09595879595958795959587959595E8
:100CA00087958D8380ED0E940D0784E00E942A07BE
:100CB00081ED0E940D070E943407982F9F709E833C
:100CC000807390E0959587959595879595958795EF
:100CD000959587958F830E943407982F9F709887EA
:100CE000807190E0959587959595879595958795D1
:100CF0009595879589870E943E07982F9F709A87C0
:100D000082958F708B870E944807888190E0DF91E1
:100D1000CF910895CF93DF93EC0180ED0E940D07F2
:100D200080E00E942A0798818A819F708F70890FC6
:100D30008295807F0E942A079C818E819F708F7090
:100D4000890F8295807F0E942A0798858A859F70E7
:100D50008F70890F8295807F0E942A0780ED0E9404
:100D60000D0784E00E942A079C858E859F708F70F6
:100D7000890F8295807F0E942A0798898A899F70AF
:100D80008F70890F8295807F0E942A079C898E89A7
:100D90009F708F70890F8295807F0E942A070E9422
:100DA0004807DF91CF91089580ED0E940D078EE0F6
:100DB0000E942A0780E40E942A0780ED0E940D0706
:100DC00080E00E942A0780E00E942A0780E00E94BB
:100DD0002A0780E00E942A0780ED0E940D0784E028
:100DE0000E942A0781E00E942A0781E00E942A07C8
:100DF00081E20E942A070E944807089587B18F7CEC
:100E000087B988B1806388B9E9EBF0E080818C7F95
:100E1000808388E98093B800089594EA9093BC0099
:100E20009091BC009923E4F78093BB0084E8809301
:100E3000BC008091BC008823E4F78091B900887FD2
:100E4000883121F0803421F480E0089580E0089515
:100E500081E008958093BB0084E88093BC0080917A
:100E6000BC008823E4F7089584EC8093BC00809153
:100E7000BC008823E4F78091BB00089584E8809348
:100E8000BC008091BC008823E4F78091BB000895EA
:100E900084E98093BC0008951F920F920FB60F92C1
:100EA00011242F938F939F93EF93FF938091C00012
:100EB0002091C6008C71E0918C01EF5FEF719091F1
:100EC0008B01E91739F0E0938C01F0E0E157FE4F18
:100ED000208301C082E090918A01892B80938A014E
:100EE000FF91EF919F918F912F910F900FBE0F90D7
:100EF0001F9018951F920F920FB60F9211248F9387
:100F00009F93EF93FF9390918E0180918D0198179D
:100F100069F0E0918D01EF5FEF71E0938D01F0E0FA
:100F2000E155FE4F80818093C60005C0E1ECF0E002
:100F300080818F7D8083FF91EF919F918F910F90A2
:100F40000FBE0F901F90189510928E0110928D0178
:100F500010928C0110928B01282F392F33231CF40F
:100F600022E02093C00090789093C5008093C40045
:100F700088E98093C10086E08093C20008952091A3
:100F80008E012F5F2F7190918D012917E1F3E22FD0
:100F9000F0E0E155FE4F808320938E01E1ECF0E01C
:100FA0008081806280830895CF93DF93EC0103C03A
:100FB00021960E94BF0788818111FACFDF91CF91DE
:100FC00008955058BB27AA270E94F9070C9443099B
:100FD0000E94350938F00E943C0920F039F49F3F07
:100FE00019F426F40C9432090EF4E095E7FB0C9406
:100FF0002C09E92F0E94540958F3BA1762077307A6
:101000008407950720F079F4A6F50C9476090EF480
:10101000E0950B2EBA2FA02D0B01B90190010C0108
:10102000CA01A0011124FF27591B99F0593F50F420
:10103000503E68F11A16F040A22F232F342F442778
:10104000585FF3CF469537952795A795F040539570
:10105000C9F77EF41F16BA0B620B730B840BBAF040
:101060009150A1F0FF0FBB1F661F771F881FC2F7AB
:101070000EC0BA0F621F731F841F48F487957795BF
:101080006795B795F7959E3F08F0B0CF9395880F79
:1010900008F09927EE0F9795879508950E946208AA
:1010A0000C9443090E943C0958F00E94350940F015
:1010B00029F45F3F29F00C942C0951110C94770905
:1010C0000C9432090E94540968F39923B1F3552313
:1010D00091F3951B550BBB27AA276217730784074B
:1010E00038F09F5F5F4F220F331F441FAA1FA9F3E1
:1010F00035D00E2E3AF0E0E832D091505040E695CF
:10110000001CCAF72BD0FE2F29D0660F771F881F2F
:10111000BB1F261737074807AB07B0E809F0BB0B22
:10112000802DBF01FF2793585F4F3AF09E3F510536
:1011300078F00C942C090C9477095F3FE4F3983E07
:10114000D4F3869577956795B795F7959F5FC9F71F
:10115000880F911D9695879597F90895E1E0660FA0
:10116000771F881FBB1F621773078407BA0720F019
:10117000621B730B840BBA0BEE1F88F7E095089582
:101180000E945C0988F09F5798F0B92F9927B751B2
:10119000B0F0E1F0660F771F881F991F1AF0BA951B
:1011A000C9F714C0B13091F00E947609B1E00895FA
:1011B0000C947609672F782F8827B85F39F0B93FEC
:1011C000CCF3869577956795B395D9F73EF49095CE
:1011D0008095709561957F4F8F4F9F4F0895E8944C
:1011E00009C097FB3EF490958095709561957F4F6F
:1011F0008F4F9F4F9923A9F0F92F96E9BB2793951D
:10120000F695879577956795B795F111F8CFFAF42C
:10121000BB0F11F460FF1BC06F5F7F4F8F4F9F4F5D
:1012200016C0882311F096E911C0772321F09EE8BB
:10123000872F762F05C0662371F096E8862F70E021
:1012400060E02AF09A95660F771F881FDAF7880FFB
:101250009695879597F9089597F99F6780E870E0CC
:1012600060E008959FEF80EC089500240A9416161C
:10127000170618060906089500240A941216130684
:10128000140605060895092E0394000C11F4882312
:1012900052F0BB0F40F4BF2B11F460FF04C06F5F2E
:1012A0007F4F8F4F9F4F089557FD9058440F551F04
:1012B00059F05F3F71F04795880F97FB991F61F0D8
:1012C0009F3F79F087950895121613061406551F4F
:1012D000F2CF4695F1DF08C0161617061806991FBB
:1012E000F1CF86957105610508940895E894BB27B0
:1012F00066277727CB0197F908950E9490090C94EF
:1013000043090E94350938F00E943C0920F09523DA
:1013100011F00C942C090C94320911240C947709C7
:101320000E94540970F3959FC1F3950F50E0551F2B
:10133000629FF001729FBB27F00DB11D639FAA272A
:10134000F00DB11DAA1F649F6627B00DA11D661F79
:10135000829F2227B00DA11D621F739FB00DA11D9A
:10136000621F839FA00D611D221F749F3327A00D54
:10137000611D231F849F600D211D822F762F6A2FF0
:1013800011249F5750409AF0F1F088234AF0EE0F55
:10139000FF1FBB1F661F771F881F91505040A9F782
:1013A0009E3F510580F00C942C090C9477095F3F07
:1013B000E4F3983ED4F3869577956795B795F795BE
:1013C000E7959F5FC1F7FE2B880F911D9695879536
:1013D00097F90895A1E21A2EAA1BBB1BFD010DC0AF
:1013E000AA1FBB1FEE1FFF1FA217B307E407F507D5
:1013F00020F0A21BB30BE40BF50B661F771F881FB1
:10140000991F1A9469F760957095809590959B0146
:10141000AC01BD01CF010895052E97FB1EF4009489
:101420000E94230A57FD07D00E94EA0907FC03D057
:101430004EF40C94230A50954095309521953F4FDA
:101440004F4F5F4F089590958095709561957F4FB0
:101450008F4F9F4F0895EE0FFF1F0590F491E02DE1
:101460000994BB272A3051F4992342F4BDE29095A8
:101470008095709561957F4F8F4F9F4F0C94410AD7
:10148000BB27FA01A62F6217710581059105330B61
:1014900030FB66F0AA27660F771F881F991FAA1FC7
:1014A000A21710F0A21B63953850A9F7A05DAA33CC
:1014B00008F0A95DA19336F7B111B1931082CA016A
:1014C0000C94950CBB27FB015527AA27880F991F61
:1014D000AA1FA41710F0A41B83955051B9F7A05D63
:1014E000AA3308F0A95DA193009779F7B111B193E0
:1014F0001192CB010C94950CAEE0B0E0E2E8FAE07A
:101500000C944D0D0D891E8986E08C831A83098306
:101510008FEF9FE79E838D83AE01475E5F4F6F899C
:10152000788DCE0101960E949E0AEF81F885E00F2A
:10153000F11F10822E96E4E00C94690DABE0B0E050
:10154000E4EAFAE00C943F0D6C017B018A01FC0196
:1015500017821682838181FFCCC1CE0101963C01A6
:10156000F6019381F70193FD859193FF81917F01AE
:10157000882309F4BAC1853239F493FD859193FF2C
:1015800081917F01853229F4B60190E00E94A50C7B
:10159000E7CF912C212C312CFFE1F315D8F08B32C1
:1015A00079F038F4803279F08332A1F4232D206170
:1015B0001DC08D3261F0803369F4232D216016C087
:1015C000832D8260382EE32DE4603E2E2AC0F32D59
:1015D000F8601DC037FC2DC020ED280F2A3040F0E8
:1015E0008E32B9F436FC81C1232D2064322E19C00D
:1015F00036FE06C08AE0989E200D1124922E11C05E
:10160000EAE02E9E200D1124222EF32DF0623F2EB3
:1016100008C08C3621F4832D8068382E02C08836AD
:1016200041F4F70193FD859193FF81917F01811131
:10163000B3CF982F9F7D9554933028F40C5F1F4FA4
:101640009FE399830DC0833631F0833771F0833582
:1016500009F059C021C0F801808189830E5F1F4FB6
:1016600088248394912C530113C02801F2E04F0E7B
:10167000511CF801A080B18036FE03C0692D70E0D6
:1016800002C06FEF7FEFC5010E948A0C4C018201FE
:10169000F32DFF773F2E16C0280122E0420E511C89
:1016A000F801A080B18036FE03C0692D70E002C051
:1016B0006FEF7FEFC5010E947F0C4C01F32DF068A6
:1016C0003F2E820133FC1BC0822D90E088169906C4
:1016D000B0F4B60180E290E00E94A50C2A94F4CF09
:1016E000F50137FC859137FE81915F01B60190E0ED
:1016F0000E94A50C21102A9421E0821A91088114DD
:10170000910471F7E8C0843611F0893641F5F8018B
:1017100037FE07C060817181828193810C5F1F4F0A
:1017200008C060817181072E000C880B990B0E5F39
:101730001F4FF32DFF763F2E97FF09C090958095A0
:10174000709561957F4F8F4F9F4FF0683F2E2AE035
:1017500030E0A3010E94E10C882E861845C0853731
:1017600031F4232D2F7EB22E2AE030E025C0932DB8
:10177000997FB92E8F36C1F018F4883579F0B5C04D
:10178000803719F0883721F0B0C0E92FE061BE2E14
:10179000B4FE0DC0FB2DF460BF2E09C034FE0AC09C
:1017A000292F2660B22E06C028E030E005C020E1D7
:1017B00030E002C020E132E0F801B7FE07C06081EE
:1017C0007181828193810C5F1F4F06C0608171819E
:1017D00080E090E00E5F1F4FA3010E94E10C882E75
:1017E0008618FB2DFF773F2E36FE0DC0232D2E7F52
:1017F000A22E891458F434FE0BC032FC09C0832D8C
:101800008E7EA82E05C0B82CA32C03C0B82C01C016
:10181000B92CA4FE0FC0FE01E80DF11D80818033BC
:1018200021F49A2D997EA92E09C0A2FE06C0B39478
:10183000B39404C08A2D867809F0B394A3FC11C038
:10184000A0FE06C0B21488F4280C922C9B180EC07F
:10185000B21460F4B60180E290E00E94A50CB3944B
:10186000F7CFB21418F42B1802C0982C212CA4FE28
:1018700010C0B60180E390E00E94A50CA2FE17C044
:10188000A1FC03C088E790E002C088E590E0B601C3
:101890000CC08A2D867859F0A1FE02C08BE201C0EF
:1018A00080E2A7FC8DE2B60190E00E94A50C8914AD
:1018B00038F4B60180E390E00E94A50C9A94F7CF2B
:1018C0008A94F301E80DF11D8081B60190E00E9439
:1018D000A50C8110F5CF222009F442CEB60180E29A
:1018E00090E00E94A50C2A94F6CFF601868197819C
:1018F00002C08FEF9FEF2B96E2E10C945B0DFC0191
:101900000590615070400110D8F7809590958E0F2A
:101910009F1F0895FC016150704001900110D8F79D
:10192000809590958E0F9F1F0895DC01FC01672F15
:1019300071917723E1F7329704C07C916D937083A6
:101940006291AE17BF07C8F308950F931F93CF930B
:10195000DF93FB01238121FD03C08FEF9FEF2CC09C
:1019600022FF16C0468157812481358142175307D3
:1019700044F4A081B1819D012F5F3F4F31832083CB
:101980008C93268137812F5F3F4F3783268314C086
:101990008B01EC01FB010084F185E02D0995892B79
:1019A000E1F6D80116968D919C911797019617969E
:1019B0009C938E931697CE01DF91CF911F910F913B
:1019C0000895FA01AA27283051F1203181F1E894D5
:1019D0006F936E7F6E5F7F4F8F4F9F4FAF4FB1E022
:1019E0003ED0B4E03CD0670F781F891F9A1FA11D1D
:1019F000680F791F8A1F911DA11D6A0F711D811D1E
:101A0000911DA11D20D009F468943F912AE0269FE2
:101A100011243019305D3193DEF6CF010895462F41
:101A20004770405D4193B3E00FD0C9F7F6CF462F22
:101A30004F70405D4A3318F0495D31FD405241938B
:101A400002D0A9F7EACFB4E0A69597958795779548
:101A50006795BA95C9F700976105710508959B01CF
:101A6000AC010A2E06945795479537952795BA9558
:101A7000C9F7620F731F841F951FA01D08952F9231
:101A80003F924F925F926F927F928F929F92AF920E
:101A9000BF92CF92DF92EF92FF920F931F93CF935B
:101AA000DF93CDB7DEB7CA1BDB0B0FB6F894DEBFF2
:101AB0000FBECDBF09942A88398848885F846E8418
:101AC0007D848C849B84AA84B984C884DF80EE8062
:101AD000FD800C811B81AA81B981CE0FD11D0FB66B
:101AE000F894DEBF0FBECDBFED010895F894FFCF8F
:101AF00000150E1F0E15000031313A32323A3333E1
:101B00000053657475703A00256925693A25692581
:101B1000693A2569256900256925692E25692569A0
:101B20002E323025692569000D0A54696D653A2009
:101B300000202020202020202020002048756D3A01
:101B4000200020253B0020507265733A2000206859
:101B500050613B0020685061002054656D703A2050
:101B60000020433B00430031313A32323A333300F4
:00000001FF
